:020000040800F2
:10000000A80E00209D01000861670008B93D0008A6
:100010005D6700088D080008357E000800000000BC
:10002000000000000000000000000000E97100086E
:100030009D0B000800000000F969000831720008FB
:10004000B7010008B7010008B7010008B7010008B0
:10005000B7010008B7010008B7010008B7010008A0
:10006000B7010008B7010008B7010008B701000890
:10007000B7010008B7010008B7010008B701000880
:10008000B7010008B7010008B7010008E50800083B
:10009000D5080008B7010008B7010008B70100083B
:1000A000B701000861730008B70100085173000828
:1000B000B7010008B7010008B7010008B701000840
:1000C000B7010008B7010008B7010008B701000830
:1000D000B7010008857D0008C57D0008F57D000892
:1000E000B7010008B7010008B7010008B701000810
:1000F000B7010008B7010008B7010008B701000800
:10010000B7010008B701000871730008B7010008C3
:1001100019780008B7010008B7010008B701000806
:10012000B7010008B7010008B7010008B7010008CF
:10013000B7010008B7010008B7010008B7010008BF
:10014000B7010008B7010008B7010008B7010008AF
:10015000B7010008B7010008B7010008B70100089F
:10016000B7010008B7010008B7010008B70100088F
:10017000B7010008B7010008B7010008000000003F
:10018000B7010008B7010008DFF80CD000F08EFAC4
:1001900000480047818D0008A80E002006488047CF
:1001A00006480047FEE7FEE7FEE7FEE7FEE7FEE75C
:1001B000FEE7FEE7FEE7FEE7ED72000889010008B2
:1001C0002DE9F05F0546002092469B46884606468C
:1001D000814640241BE0284641464746224600F01F
:1001E000AEF953465A46C01A914110D311461846EB
:1001F000224600F095F92D1A67EB01084F4622467A
:100200000120002100F08CF917EB00094E41201E5F
:10021000A4F10104DFDC484631462A464346BDE8E6
:10022000F09FD2B201E000F8012B491EFBD27047CB
:100230000022F6E710B513460A4604461946FFF7B2
:10024000F0FF204610BD2DE9FE4F804681EA0300F5
:10025000C00F0C46009021F0004123F00045B8EBA0
:100260000200A94105D24046214690461C460B4655
:10027000024623F00040104347D0270DC7F30A0081
:10028000C3F30A510290401A019040286BDAC3F37D
:10029000130040F4801B0098924620B10023D2EB5B
:1002A000030A63EB0B0B01985946C0F1400250461C
:1002B00000F036F906460D4650465946019A00F0C0
:1002C0004EF910EB08006141002487EA115284EADC
:1002D000E7731A4340D0009A62B3019A012A4FEAA9
:1002E000075215DC001B61EB02014FF0004202EAED
:1002F0000752CDE90042001C41F5801132462B46E1
:1003000000F085F903B0BDE8F08F40462146F9E7DB
:10031000001B61EB0201001C41F5801300185B41DA
:100320002018A2F5001747EB030140EAD570B61973
:100330006D4111E06D084FEA360645EAC0754FEA97
:100340000752001B61EB0201001C41F580114908B6
:100350004FEA30000019514132462B4603B0BDE848
:10036000F04F00F045B90098012240000023D0EB87
:10037000020263EBE073009821464FEAE074B8EBA9
:10038000000061EB0401E9E783F000435BE781F0E3
:10039000004158E72DE9FE4F81EA030404F00044D0
:1003A00021F0004100944FF0000B23F0004350EA8D
:1003B00001045ED052EA03045BD0C3F30A54C1F3D4
:1003C0000A552C44A4F2F3340194A0FB0254C1F367
:1003D000130141F48011C3F3130343F4801301FBB1
:1003E000024400FB034E840A970A44EA815447EA18
:1003F0008357A4FB076802958D0A05FB07854FEA22
:10040000932C04FB0C542705029D4FEA065847EA3B
:100410001637B5EB08056EEB070C870E920E47EA10
:10042000811742EA8312A7FB0201B6EB0B0164EBD2
:1004300000042B0D43EA0C335E1844EB1C50DA46E3
:100440005146E7FB0201C5F313044FEA0B3343EABD
:1004500014534FEA0432019C43EA0603A4F10C044E
:100460000294009CCDE900B400F0D1F803B0BDE8DF
:10047000F08F00200146F9E70EB540F233410291BA
:100480000021CDE900110A460B4600F0C0F803B088
:1004900000BD00F0004230F000400AD0C10D01F56F
:1004A0006071C0F3160042EA0151C20840071143CF
:1004B000704700200146704730B5041E71F10004FA
:1004C00004DB4FF00044404264EB0101141E73F161
:1004D000000405DB1C464FF00043524263EB04036B
:1004E000994208BF904230BD01F0004330B421F082
:1004F000004150EA010206D00A0DA2F56072C1F374
:100500001301002A02DC30BC00207047440F44EA8B
:10051000C104C100E01830BC00EBC25000F031B89B
:10052000202A04DB203A00FA02F1002070479140B3
:10053000C2F1200320FA03F3194390407047202AA8
:1005400004DB203A21FA02F00021704721FA02F37D
:10055000D040C2F120029140084319467047202A3A
:1005600006DBCB17203A41FA02F043EAE07306E0DB
:1005700041FA02F3D040C2F12002914008431946EB
:1005800070470029A8BF7047401C490008BF20F0F1
:100590000100704710B4B0FA80FC00FA0CF050EA89
:1005A000010404BF10BC704749B1CCF1200421FA0A
:1005B00004F411FA0CF118BF012121430843A3EB05
:1005C0000C01CB1D4FEA00614FEA102042BF002012
:1005D00010BC704700EBC35010440029A4BF10BCEE
:1005E0007047401C490008BF20F0010010BC704754
:1005F00010B5141E73F1000408DA401C41F100012B
:1006000092185B411A4301D120F0010010BD2DE981
:10061000F04D92469B4611B1B1FA81F202E0B0FA78
:1006200080F220329046FFF77BFF04460F4640EAF7
:100630000A0041EA0B0153465A46084313D01146BB
:1006400053EA010019D0C8F140025046FFF777FF86
:1006500005460E46504659464246FFF761FF08439D
:1006600005D0012004E020463946BDE8F08D002089
:10067000054346EAE0762C4337430A986305E40ACB
:10068000A0EB08000022FD0A44EA47540A3002D5D4
:1006900000200146E9E7010510196941DDE9084537
:1006A00000196941BDE8F04DA2E70000064C074D76
:1006B00006E0E06840F0010394E807009847103432
:1006C000AC42F6D3FFF764FD88D60008A8D6000830
:1006D0002DE9F04D81EA030404F0004B21F00045C0
:1006E00014464FF0000A23F0004150EA050220D0E2
:1006F00054EA01021DD0C5F30A570246C5F313039D
:10070000C1F31300C1F30A5640F4801543F480137B
:10071000A7EB0608101BD64608F2FD3873EB050060
:1007200002D308F1010801E092185B41B8F1000F13
:1007300003DA00200146BDE8F08D00204FF480115F
:10074000064684460EE0171B73EB050705D3121B04
:1007500063EB050306434CEA010C49084FEA3000FD
:1007600092185B4150EA0107EDD152EA030012D022
:1007700082EA040083EA0501084305D0101BAB415F
:1007800006D20122002306E000224FF0004302E0DF
:100790006FF0010253101AEB06004CEB085110EBFE
:1007A0000A0041EB0B01BDE8F04DFFF721BF0EB58C
:1007B000C10F80EAE0700844CA07002140F23343C9
:1007C0008DE80E000A460B46FFF721FF03B000BD7F
:1007D00070B5C1F30A5201F000450024C1F31301C2
:1007E00040F2FF3341F480119A4201DA002070BDDB
:1007F00040F233439A42A2F2334203DC5242FFF703
:100800009EFE00E090402C43F1D0404270BD0000BD
:1008100010B500242EE0194901EBC41101F10C00C0
:100820009FED171AF7EE000AB1EE040A40F6B8334E
:1008300041F28832032106F0BBF8B3EE041ADFED73
:10084000100A9FED100A4FF47A735A0003210E48E4
:1008500006F0AEF8B3EE041ADFED090A9FED090ABF
:100860004FF47A735A00032107486C3006F0A0F861
:10087000601CC4B2042CCEDB10BD0000E0010020DF
:1008800000000000000061449400002000BFFEE76B
:1008900000B58BB000200790012008900020019047
:1008A0000290039004900590012009900E200A9078
:1008B0000020069001A9064800F0C4FD022104486A
:1008C00000F014FD024801F068F90BB000BD000013
:1008D000C404002010B5024800F00BFF10BD00005A
:1008E000C404002010B5024800F003FF10BD000052
:1008F000C40400200268A2F2012232B1012A1BD0F6
:10090000022A34D0032A68D14CE04A780B7842EAB4
:100910000322334B1A80CA788B7842EA032212B240
:100920002F4B5A804A790B7942EA032212B22C4BA0
:100930009A808A79DA8050E04A780B7842EA03227A
:10094000274BA3F88020CA788B7842EA032213B29F
:10095000234AA2F882304A790B7942EA032213B281
:100960001F4AA2F884308B79A2F8863035E04A78A5
:100970000B7842EA03221A4BA3F80021CA788B783D
:1009800042EA032213B2164AA2F802314A790B79DD
:1009900042EA032213B2124AA2F804318B79A2F878
:1009A00006311AE04A780B7842EA03220C4BA3F88E
:1009B0008021CA788B7842EA032213B2084AA2F84F
:1009C00082314A790B7942EA032213B2044AA2F82F
:1009D00084318B79A2F8863100BF00BF70470000D8
:1009E000E00100202DE9F04107460C4615461E4661
:1009F0004FF400700D49086000208860C86008202E
:100A00000861380A0A4908704F70200A8870CC7053
:100A1000280A08714D71300A8871CE71054B0A465B
:100A20000249054800F078FCBDE8F0819004002000
:100A30003800002048000020C404002010B5002425
:100A400028E0164901EBC411B1F9081001EE101AA3
:100A5000B8EEC11AF0EE410A104901EBC411B1F928
:100A6000021001EE101AB8EEC11AB0EE410A0B499D
:100A700001EBC41101F10C0005F090FEBDEEC00ABF
:100A800010EE100A00B2054901EBC411A1F878007C
:100A9000601CC4B2042CD4DB10BD0000E0010020B7
:100AA00010B59FED300A304880ED000A9FED2D0A09
:100AB00080ED010A9FED2B0A80ED050A9FED290AC2
:100AC00080ED040A9FED270A80ED060A9FED250AB6
:100AD00080ED070A9FED230A80ED080A00202249D5
:100AE000888400212048C18402469162D16200229C
:100AF000026342639FED1B0A80ED120A18211B4816
:100B000002F0F2F818211A4802F0EEF80021194814
:100B100002F04DFA174801F06BFF174801F068FF2B
:100B200001221649164802F0FBFE0122154916481B
:100B300002F0F6FE01221549154802F0F1FE0122ED
:100B40001449154802F0ECFE03F038F9DFED051A00
:100B50009FED041ADFED030A9FED020A06F046FB43
:100B600010BD000000000000E00300207805002018
:100B7000B40500203C050020F00500205D000020A9
:100B8000E809002088090020280A00205E000020D3
:100B9000680A00208E000020A809002070477047D6
:100BA00070B504461D460023B5F5804F13D154F8A7
:100BB00022300C480340D1E9000640EA06108E6856
:100BC00040EA06208E8940EA06408E69304303439E
:100BD00044F8223003E06FF0704044F82200002017
:100BE00070BD00000000F0CF10B503460022086879
:100BF00053F8202012480240D1E901042043CC6878
:100C000020430C6920434C6920438C692043CC6904
:100C100020430C6A20434C6A20438C6A2043CC6AF0
:100C20002043CC6B20430C6B204302438868082888
:100C300001D142F04002086843F82020002010BD96
:100C40008000F0FF30B503460024501C53F82040CC
:100C500004F04044D1E9000540EA05108D6840EAFF
:100C600005208D8940EA0545088A401E45EA005561
:100C7000087D801E45EA00608D6928430443501CAE
:100C800043F82040002030BD00B52DED108B83B01F
:100C9000B0EE40AAF0EE60AAB0EE418A704890ED46
:100CA000040A10EE101A0846FFF7F3FB41EC1D0B87
:100CB000B0EE4D0AF0EE6D0A07F046F9B0EE40BA1C
:100CC000F0EE60BA1AEE900AFFF7E3FB41EC1C0B62
:100CD00053EC1B2BFFF75EFB41EC1E0B604890EDC5
:100CE000040A10EE101A0846FFF7D3FB41EC1C0B68
:100CF000B0EE4C0AF0EE6C0A07F0B6F8B0EE40BA6F
:100D0000F0EE60BA1AEE100AFFF7C3FB41EC1D0BC0
:100D100053EC1B2BFFF73EFB53EC1E2BCDE90001E0
:100D20009DED000B51EC100BFFF78DFA41EC1F0B02
:100D3000FFF7DAFB08EE900A494890ED040A10EE3E
:100D4000101A0846FFF7A5FB41EC1D0BB0EE4D0A4B
:100D5000F0EE6D0A07F088F8B0EE40BAF0EE60BA37
:100D60001AEE900AFFF795FB41EC1C0B53EC1B2B82
:100D7000FFF710FB41EC1E0B394890ED040A10EE12
:100D8000101A0846FFF785FB41EC1C0BB0EE4C0A2D
:100D9000F0EE6C0A07F0D8F8B0EE40BAF0EE60BAA8
:100DA000B1EE4A0A10EE100AFFF773FB41EC1D0B7F
:100DB00053EC1B2BFFF7EEFA41EC1F0B53EC1E2BF1
:100DC000FFF741FACDE900019DED000B51EC100B4E
:100DD000FFF78AFB09EE100AF0EE489A38EE890A0E
:100DE000F7EE000A09EEA00ABDEEC00A10EE100AE6
:100DF00000B21C49088138EEC90AF7EE000A09EE74
:100E0000A00ABDEEC00A10EE100A01B21548A0F803
:100E10008810B1EE680A30EE490AF7EE000A09EED2
:100E2000A00ABDEEC00A10EE100A01B20D48A0F8EB
:100E30000811B1EE680A30EE090AF7EE000A09EE71
:100E4000A00ABDEEC00A10EE100A01B20548A0F8D3
:100E5000881105F04DF803B0BDEC108B00BD00000B
:100E6000E0030020E001002010B52DED048BB0EE72
:100E7000408AF0EE608AB0EE419A38EE280AF7EE2A
:100E8000000A09EE200ABDEEC00A10EE100A00B2F8
:100E90001A49088138EE680AF7EE000A09EE200ABE
:100EA000BDEEC00A10EE100A01B21448A0F8881076
:100EB000B1EE480A30EE680AF7EE000A09EE200AA1
:100EC000BDEEC00A10EE100A01B20C48A0F80811DD
:100ED000B1EE480A30EE280AF7EE000A09EE200AC1
:100EE000BDEEC00A10EE100A01B20448A0F8881145
:100EF00004F0FEFFBDEC048B10BD0000E0010020FB
:100F00001CB53248008800F4004080B12F48817938
:100F1000407941EA00202E4908602C48017AC079C6
:100F200041EA00202B490860002028490880284811
:100F30000068F0280DD326480068B0F5967F08D8E1
:100F400024480068B0F57A6F03D8224800680A2860
:100F500004D200201D4981F820001CBD1C480068F7
:100F60001A49C8611B4800688861012081F8200087
:100F700019A010210B46C822CDE900104FF42571AD
:100F8000E62004F025FB10200090104804234FF4C5
:100F90002571C26940F24B1004F0D0FA11A0102163
:100FA0000B46C822CDE900104FF42A71E62004F068
:100FB0000FFB10200090054804234FF42A7182692A
:100FC00040F24B1004F0BAFA0120C6E78401002079
:100FD000180000201C00002052616461723A7261A6
:100FE0006400000052616461723A6C656E677468F7
:100FF000000000004748008800F40040002879D035
:10100000454890ED050A80ED120A4448807943492D
:10101000C97940EA012000EE100AB8EEC00ADFEDFF
:10102000400A80EE201A9FED3F0A21EE000A3A485E
:1010300080ED050A90ED050ADFED3B0A20EE200A5F
:10104000DFED380A80EE201A80ED041A08E03248FD
:1010500090ED050ADFED350A30EE200A80ED050A35
:101060002D4890ED050AB5EEC00AF1EE10FAEED368
:1010700008E0294890ED050ADFED2C0A30EE600A01
:1010800080ED050A244890ED050ADFED280AB4EE4C
:10109000E00AF1EE10FAECDC08E01F4890ED040ADB
:1010A000DFED230A30EE200A80ED040A1A4890EDA5
:1010B000040AB5EEC00AF1EE10FAEED308E01648C5
:1010C00090ED040ADFED1A0A30EE600A80ED040AA2
:1010D000114890ED040ADFED160AB4EEE00AF1EED5
:1010E00010FAECDC00200B4908801248006810B9A7
:1010F000012001E00CE000200E4908600E48D0F805
:10110000A40208B9012000E000200A49091F086074
:101110007047000056000020E0030020F807002080
:101120000000004700003443DB0F49400000B44397
:10113000DB0FC940A88242420080424200B52DED3B
:101140000E8B85B0614890ED050AD0ED120A30EEA5
:10115000600AB0EE408A9FED5E0AB4EEC08AF1EEFE
:1011600010FA05DD9FED5B0A38EE400AB0EE408ACA
:101170009FED590AB4EEC08AF1EE10FA05D29FED48
:10118000550A38EE000AB0EE408A05F037FC4F48A9
:1011900090ED040A10EE101A0846FFF77AF941ECB8
:1011A0001C0BB0EE4C0AF0EE6C0A06F05DFEB0EEE1
:1011B00040BAF0EE60BA51EC1B0BFFF795F90190C5
:1011C000424890ED040A10EE101A0846FFF761F944
:1011D00041EC1C0BB0EE4C0AF0EE6C0A06F0B4FECB
:1011E000B0EE40BAF0EE60BA51EC1B0B81F000415A
:1011F000FFF77AF902909DED020AB1EE400A8DEDFB
:10120000030A9DED010A8DED040ADFED340A88EE34
:10121000200ADFED330A60EE209ADFED300A88EE17
:10122000200ADFED300A20EE20AA2848B0F9240079
:1012300000EE100AB8EEC00A70EE29AA2348B0F9F1
:10124000260000EE100AB8EEC00A30EE4ADA9FED32
:10125000260ACAEE808A9FED240A8DEE009A9DED43
:10126000010A20EE280ADDED020A09EE200A1748DD
:10127000D0ED000A30EE200A80ED000A9DED030A51
:1012800020EE280ADDED040A09EE200AD0ED010A5D
:1012900030EE200A80ED010AD0E90A31B0F92400CD
:1012A000C21718185141094AC2E90A011046D0E98B
:1012B0000C301146B1F92610CA1759185041034A8B
:1012C000C2E90C1005B0BDEC0E8B00BDE0030020A0
:1012D000000096430000B443000096C3000034436E
:1012E00000C007460068094600C4B746024692F8A7
:1012F0002000012803D092F82000022806D11068AF
:10130000406908431368586100207047506A40F4F0
:10131000802050620120F8E770B504460D46A868A9
:1013200000B900E000BF94F82000012803D094F831
:10133000200002287FD12068806800F0806050B9CA
:101340002068806800F0006028B92068806800F09C
:101350008050002869D020688068C0F301610120B6
:1013600088401860A86850B92E88E86840EA465658
:10137000206800F5C07000EB011006600BE0D5E9B5
:10138000016040EAC600EE683043266806F5C07684
:1013900006EB011630602E69206800F5C07000EB86
:1013A00001104660287D01280DD1206800F5C0702D
:1013B00000EB0110406840F48076206800F5C070B2
:1013C00000EB01104660D0790006967940EA0640AD
:1013D000567940EA062610790643206800F5C07069
:1013E00000EB0110C660D0780006967840EA06400F
:1013F000567840EA062016783043266806F5C0760F
:1014000006EB0116B060206800F5C07000EB01101B
:10141000006840F00106206800F5C07000EB011084
:101420000660002070BD06E0FFE7606A40F400102F
:1014300060620120F6E7606A40F48020606201206B
:10144000F0E7000070B504460A460023216894F8CE
:101450002000012803D094F8200002287CD14149C3
:1014600001F50071086840F001000860086820F488
:101470007C5008600868556A40EA05200860157DC0
:10148000012000FA05F3C8699843C861A1F500710D
:10149000D069C8B9D1F80C029843C1F80C02908801
:1014A00080B2958940EA054501F51070566940F80B
:1014B0003650108880B2158940EA054501F5107054
:1014C000566900EBC6004560D069012819D1D1F8F2
:1014D0000C021843C1F80C02908880B2158840EACB
:1014E000054501F51070566940F83650908980B274
:1014F000158940EA054501F51070566900EBC600F4
:101500004560906928B9D1F804029843C1F80402F3
:1015100004E0D1F804021843C1F80402106928B9A4
:10152000D1F814029843C1F8140204E0D1F814026F
:101530001843C1F81402106A012804D1D1F81C0222
:101540001843C1F81C02D1F8000220F00100C1F8D4
:101550000002002070BDFFE7606A40F480206062F6
:101560000120F7E700640040704730B5044694F866
:101570002000012803D094F8200002287DD151B921
:101580002068C06800F0030090B9606A40F4001061
:101590006062012030BD01290AD12068006900F095
:1015A000030028B9606A40F4001060620120F1E78E
:1015B000206800F5D87000EB0110006800F004000E
:1015C0009060906840B9206800F5D87000EB011079
:1015D0000068400D106007E0206800F5D87000EB4F
:1015E00001100068C0085060206800F5D87000EB5A
:1015F0000110006800F002004008D060206800F58B
:10160000D87000EB0110406800F00F0010612068F6
:1016100000F5D87000EB0110406800F47F40000A2C
:101620009061206800F5D87000EB01104068000C54
:101630005061206800F5D87000EB011080681870C8
:10164000206800F5D87000EB0110806800F47F403E
:10165000000A5870206800F5D87000EB011080680F
:1016600000F47F00000C9870206800F5D87000EB43
:1016700001108068000ED87000E034E0206800F5AA
:10168000D87000EB0110C0681871206800F5D870A0
:1016900000EB0110C06800F47F40000A5871206818
:1016A00000F5D87000EB0110C06800F47F00000C5A
:1016B0009871206800F5D87000EB0110C068000E2A
:1016C000D87131B92068C06840F020002568E86012
:1016D00007E0012905D12068006940F02000256855
:1016E0002861002056E7606A40F480206062012093
:1016F00050E72DE9F05F0446002520684669206820
:10170000D0F80490206887682068D0F80CA0206882
:10171000D0F810B02068D0F8188006F0010000283A
:1017200055D007F00100C0B101202168886007F0A2
:10173000020018B1204600F061FA0EE007F0040044
:1017400010B145F4006508E007F0080010B145F459
:10175000805502E0204600F050FA07F48070C8B1CE
:101760004FF480702168886007F4007018B120463B
:1017700000F046FA0EE007F4806010B145F4005521
:1017800008E007F4006010B145F4804502E020460F
:1017900000F035FA07F48030C8B14FF4803021688A
:1017A000886007F4003018B1204600F02BFA0EE0F4
:1017B00007F4802010B145F4004508E007F400204C
:1017C00010B145F4803502E0204600F01AFA06F028
:1017D000080038B10AF0100020B145F4007510205F
:1017E0002168C86006F0040040B10AF0080028B182
:1017F00008202168C860204600F0B2F906F0020017
:1018000038B12068C06800F0030010B1204600F035
:10181000A9F906F0400038B10BF0100020B145F4F2
:10182000806510202168086106F0200040B10BF0AF
:10183000080028B1082021680861204600F0AAF9B4
:1018400006F0100038B12068006900F0030010B104
:10185000204600F0A0F906F4003040B109F0100075
:1018600028B1102021684860204600F095F906F460
:10187000803040B109F0080028B108202168486094
:10188000204600F0C0F906F4004088B309F00400D7
:1018900078B306F4807020B108F0010008B145F07B
:1018A000010506F4007020B108F0020008B145F00F
:1018B000020506F4806020B108F0040008B145F08C
:1018C000040506F40060A0B108F0700088B108F0CB
:1018D0007000402817D006DC10280BD020280CD030
:1018E000302819D10CE0502810D0602814D110E015
:1018F0001DE019E045F008050FE045F010050CE08B
:1019000045F0200509E045F0400506E045F080057A
:1019100003E045F4807500E000BF00BF20688069E7
:1019200020F07000216888610420216848602DB192
:10193000606A284360622046FFF716FEBDE8F09F0C
:1019400070B5044600250CB9012070BD94F8200044
:1019500010B9204600F0B0F82068006820F00200BE
:101960002168086000F0CEFA05460DE000F0CAFAE2
:10197000401B0A2808D9606A40F4003060620520E4
:1019800084F820000120E0E72068406800F00200B1
:101990000028EBD12068006840F001002168086051
:1019A00000F0B0FA05460DE000F0ACFA401B0A2842
:1019B00008D9606A40F400306062052084F8200095
:1019C0000120C2E72068406800F001000028EBD049
:1019D000207E012806D12068006840F08000216840
:1019E000086005E02068006820F080002168086039
:1019F000607E012806D12068006840F04000216820
:101A0000086005E02068006820F040002168086058
:101A1000A07E012806D12068006840F020002168DF
:101A2000086005E02068006820F020002168086058
:101A3000E07E012806D12068006820F010002168AF
:101A4000086005E02068006840F010002168086028
:101A5000207F012806D12068006840F00800216836
:101A6000086005E02068006820F008002168086030
:101A7000607F012806D12068006840F004002168DA
:101A8000086005E02068006820F004002168086014
:101A9000D4E9020108432169084361690843616888
:101AA000491E08432168C86100206062012084F853
:101AB0002000002049E7000010B586B0044614213C
:101AC00001A8FEF7B5FB23492068884240D100BF3A
:101AD000002000902048006840F000701E49086017
:101AE0000846006800F00070009000BF00BF00BF13
:101AF0000020009018481038006840F00100164996
:101B0000103908600846006800F00100009000BF2E
:101B100000BF4FF4C05001900220029000200390BB
:101B2000032004900920059001A90C4800F0E4F876
:101B300000221146132000F070FA132000F060FA22
:101B400003220021142000F068FA142000F058FA53
:101B500006B010BD00640040403802400000024062
:101B60007047000010B5044607492068884209D133
:101B7000064B074A00212046FFF7F7FC03490448BB
:101B8000FEF7B8FE10BD00000064004040000020D9
:101B9000A804002070477047704770B504460025C0
:101BA00094F82000012822D1022084F82000206827
:101BB000006820F001002168086000F0A3F90546E4
:101BC0000DE000F09FF9401B0A2808D9606A40F434
:101BD00000306062052084F82000012070BD20687C
:101BE000406800F001000028EBD16062F6E7606A0F
:101BF00040F4002060620120F0E7704770477047B2
:101C00007047704770477047014691F835000228C9
:101C100003D08020486501207047052081F83500F9
:101C20000868006820F001000A6810600020F3E7EF
:101C300000B587B02A48006808B107B000BD012090
:101C40002749086000BF002001902648006840F046
:101C50000100244908600846006800F00100019076
:101C600000BF00BF8814029002200390012004905E
:101C7000032005900C20069002A91B4800F03CF8B8
:101C80004FF6807002900220039001200490032000
:101C900005900C20069002A9144800F02DF84CF293
:101CA00033700290022003900120049003200590DD
:101CB0000C20069002A90E4800F01EF84FF4805048
:101CC00002900220039001200490032005900C2034
:101CD000069002A9074800F00FF800BFADE700002A
:101CE0004C0000203838024000140240001002402E
:101CF000000C024000180240F8B502460B460025D1
:101D0000002400200021DCE0012606FA01F51E680F
:101D100006EA0504AC4273D15E68022E02D05E680A
:101D2000122E13D1CF0802F1200656F827004E07D5
:101D3000F70E0F26BE40B0434F07FF0E1E69BE4090
:101D40003043CF0802F1200646F8270010684F0004
:101D50000326BE40B0431E7906F003064F00BE4086
:101D6000304310605E68012E08D05E68022E05D0F8
:101D70005E68112E02D05E68122E13D190684F005B
:101D80000326BE40B0434F00DE68BE403043906043
:101D9000506801268E40B0431E79C6F300168E406F
:101DA00030435060D0684F000326BE40B0434F0020
:101DB0009E68BE403043D0605E6806F08056B6F143
:101DC000805F7DD100BF00260096404E366846F405
:101DD00080463E4F3E603E46366806F4804600969A
:101DE00000BF00BF3A4E8F0856F827008E07370F06
:101DF0000F26BE40B043374EB24202D1002624E047
:101E00005EE0354EB24201D101261EE0334EB242B1
:101E100001D1022619E0324EB24201D1032614E06C
:101E2000304EB24201D104260FE02F4EB24201D112
:101E300005260AE02D4EB24201D1062605E02C4EC1
:101E4000B24201D1072600E008268F073F0FBE40AF
:101E500030431F4E8F0846F82700264E3068A043B7
:101E60005E6806F48036B6F5803F00D12043214EEF
:101E70003060361D3068A0435E6806F40036B6F563
:101E8000003F00D120431B4E361D3060361D3068A8
:101E9000A0435E6806F48016B6F5801F00D120438B
:101EA000144E08363060361D3068A0435E6806F474
:101EB0000016B6F5001F00D120430E4E0C363060E0
:101EC000491C1029FFF420AFF8BD0000443802403F
:101ED00008380140000002400004024000080240AF
:101EE000000C0240001002400014024000180240A2
:101EF000001C0240003C01400AB1816101E00B047A
:101F0000836170470148006870470000600000204E
:101F1000034800680349097808440149086070478C
:101F2000600000206800002010B50D48006840F4F3
:101F300000700B4908600846006840F48060086043
:101F40000846006840F480700860032000F0A4F8A0
:101F5000002000F007F800F02BF8002010BD000072
:101F6000003C024070B504460E4800784FF47A7188
:101F7000B1FBF0F00C490968B1FBF0F5284600F020
:101F800046FC08B1012070BD102C07D2002221466A
:101F9000501E00F042F80548046001E00120F2E71D
:101FA0000020F0E7680000206C00002064000020A2
:101FB00008B500BF002000901048006840F4804041
:101FC0000E4908600846006800F48040009000BF99
:101FD00000BF00BF00200090081F006840F0805044
:101FE000091F08600846006800F08050009000BF9C
:101FF00000BF052000F050F808BD00004438024042
:1020000000BF00F01F02012191404209920002F13D
:10201000E022C2F8001100BF70472DE9F05F804652
:102020000D461646002704F09DFB074639462A4612
:10203000334601F00700C0F1070ABAF1040F02D9D4
:102040004FF0040A01E0C0F1070AD14600F1040A8A
:10205000BAF1070F02D24FF0000A01E0A0F1030A23
:10206000D4464FF0010A0AFA09FAAAF1010A0AEA6B
:10207000020A0AFA0CFA4FF0010B0BFA0CFBABF157
:10208000010B0BEA030B4AEA0B042146404604F01D
:1020900071FBBDE8F09F000000BF00F00702064B97
:1020A00019684FF6FF031940044B0B4343EA022122
:1020B000014B196000BF70470CED00E00000FA050D
:1020C00070B504460D460CB9012070BD5848006833
:1020D00000F00F00A84209D255490D70084600686B
:1020E00000F00F00A84201D00120EEE7207800F0B8
:1020F000020002281DD1207800F00400042805D138
:102100004C48006840F4E0504A490860207800F0EC
:102110000800082805D14748006840F46040454958
:1021200008604448006820F0F000A1680843414975
:102130000860207800F00100A8B36068012807D18A
:102140003C4808380068C0F34040B8B90120BCE7FB
:102150006068022802D06068032807D13548083833
:102160000068C0F3406048B90120AEE73148083844
:102170000068C0F3400008B90120A6E72D480068B8
:1021800020F00300616808432A490860FFF7BAFE9F
:10219000064609E0FFF7B6FE801B41F2883188420F
:1021A00002D9032091E707E02248006800F00C0004
:1021B0006168B0EB810FEDD11D48006800F00F00A1
:1021C000A84209D91A490D700846006800F00F00AE
:1021D000A84201D0012078E7207800F0040004280C
:1021E00007D11448006820F4E050E1680843114921
:1021F0000860207800F00800082808D10D48006821
:1022000020F46040216940EAC1000A49086000F0FA
:102210003DF808490968C1F30311074A515CC840F9
:10222000064908600020FFF79DFE00204DE70000F2
:10223000003C02400838024050D500086C000020E5
:1022400001480068704700006C00002000B5FFF7EF
:10225000F7FF04490968C1F38221034A515CC84071
:1022600000BD00000838024060D5000800B5FFF747
:10227000E7FF04490968C1F34231034A515CC84091
:1022800000BD00000838024060D500082DE9F04785
:10229000002400250026A1462548006800F00C0017
:1022A00020B1042805D008283AD105E0DFF8849051
:1022B00039E0DFF8849036E01D48001F006800F028
:1022C0003F041B48001F006800F4800078B11A48E2
:1022D0001749091F0968C1F38811A0FB0170014665
:1022E000224600233846FDF76BFF05460EE01148F5
:1022F0000F49091F0968C1F38811A0FB017001464D
:10230000224600233846FDF75BFF05460848001FBC
:102310000068C0F30140401C4600B5FBF6F902E03E
:10232000DFF8109000BF00BF4846BDE8F08700000E
:10233000083802400024F40000127A00F8B5044680
:102340000CB90120F8BD207800F00100002874D0FD
:10235000F948006800F00C0004280DD0F648006829
:1023600000F00C00082813D1F348001F006800F4A7
:102370008000B0F5800F0BD1EF4808380068C0F33B
:102380004040002859D06068002856D10120D9E784
:1023900000BF6068B0F5803F08D1E74808380068A2
:1023A00040F48030E449083908601EE06068B0F508
:1023B000A02F0DD1E0480838006840F48020DE49A5
:1023C000083908600846006840F4803008600CE076
:1023D000D9480838006820F48030D74908390860A7
:1023E0000846006820F48020086000BF606890B153
:1023F000FFF788FD054606E0FFF784FD401B6428D3
:1024000001D903209EE7CC4808380068C0F340405B
:102410000028F1D011E0FFF775FD054606E0FFF753
:1024200071FD401B642801D903208BE7C24808389E
:102430000068C0F340400028F1D1207800F002008D
:1024400002285FD1BC48006800F00C0058B1BA48BF
:10245000006800F00C0008281CD1B748001F006875
:1024600000F48000B0B9B44808380068C0F34000F8
:1024700020B1E068012801D0012063E7AE480838A8
:10248000006820F0F800216940EAC100AA49083933
:10249000086037E0E06800B30120A8490860FFF752
:1024A00031FD054606E0FFF72DFD401B022801D94E
:1024B000032047E7A04808380068C0F34000002820
:1024C000F1D09D480838006820F0F800216940EA02
:1024D000C10099490839086014E000209749086054
:1024E000FFF710FD054606E0FFF70CFD401B022834
:1024F00001D9032026E7904808380068C0F340005F
:102500000028F1D1207800F0080008282CD160695B
:10251000A8B101208A490860FFF7F4FC054606E0EF
:10252000FFF7F0FC401B022801D903200AE782488C
:102530006C300068C0F340000028F1D014E00020A7
:102540007F490860FFF7DEFC054606E0FFF7DAFC8E
:10255000401B022801D90320F4E677486C3000685C
:10256000C0F340000028F1D1207800F004000428D6
:1025700070D1002670483830006800F0805090B963
:1025800000BF002000906C483830006840F0805058
:102590006949383108600846006800F080500090B2
:1025A00000BF00BF01266748006800F48070B0B922
:1025B0006448006840F4807062490860FFF7A2FC3C
:1025C000054606E0FFF79EFC401B022801D90320C8
:1025D000B8E65C48006800F480700028F2D000BFC4
:1025E000A068012808D154486830006840F0010014
:1025F0005149683108601DE0A06805280DD14E489A
:102600006830006840F004004B49683108600846B3
:10261000006840F0010008600CE04748683000683E
:1026200020F001004449683108600846006820F045
:102630000400086000BFA068A8B1FFF763FC05466E
:1026400009E0FFF75FFC401B41F28831884202D964
:10265000032077E626E0384868300068C0F3400081
:102660000028EED013E0FFF74DFC054608E0FFF729
:1026700049FC401B41F28831884201D9032061E6C0
:102680002D4868300068C0F340000028EFD1012ECB
:1026900007D129483830006820F080502649383169
:1026A000086000BFA069B8B32348006800F00C00C0
:1026B00008285ED0A069022846D100201F4908667C
:1026C000FFF720FC054606E0FFF71CFC401B022834
:1026D00001D9032036E6184808380068C0F3406086
:1026E0000028F1D1D4E907010843616A40EA811169
:1026F0000122A06AC2EB500041EA00412C20005D9B
:1027000041EA00600C49091F086001200B49086676
:10271000FFF7F8FB054607E02DE0FFF7F3FB401B52
:10272000022801D903200DE6034808380068C0F3E9
:1027300040600028F1D01EE0083802400000474207
:10274000800E47420070004000200C490866FFF7E9
:10275000D9FB054606E0FFF7D5FB401B022801D94F
:102760000320EFE506480068C0F340600028F2D17E
:1027700001E00120E6E50020E4E50000000047421A
:102780000038024070B504460E4615460CB90120CB
:1027900070BD94F8490028B9002084F8480020460C
:1027A00000F01CF804F108012068FEF71DFA31461C
:1027B000A2682068FEF746FA2946236BD4E9010295
:1027C000FEF7EEF9A168206850F8210040F0010002
:1027D000A268216841F822000020D9E710B504461C
:1027E000FFF726FA10BD042808D14FF0E02109694F
:1027F00041F004014FF0E022116107E04FF0E021C9
:10280000096921F004014FF0E0221161704770B5B1
:1028100004462546681EB0F1807F01D301200FE0F9
:10282000681E4FF0E02148610F214FF0FF3003F0A8
:10283000A1FF00204FF0E0218861072008610020FF
:1028400070BD70477047024600BF92F838000128FB
:1028500001D102207047012082F8380000BF022019
:1028600082F839001068406820F0700013685860E2
:10287000106840680B6818431368586010688068D7
:1028800020F0800013689860106880684B681843D7
:1028900013689860012082F8390000BF002082F898
:1028A000380000BF00BFD5E710B504460CB90120C1
:1028B00010BD94F8390028B9002084F8380020466B
:1028C00000F00CF8022084F83900211D206804F083
:1028D00057FD012084F839000020E9E710B586B0E3
:1028E0000446142101A8FDF7A3FC3C492068884256
:1028F0003FD100BF002000903948006840F001003F
:10290000374908600846006800F00100009000BFE9
:1029100000BF00BF0020009031481438006840F02C
:1029200001002F49143908600846006800F00100D2
:10293000009000BF00BF8815019002200290002087
:10294000039004900120059001A92648FFF7D4F9CF
:10295000032200211920FFF760FB1920FFF750FB2D
:10296000022200211B20FFF758FB1B20FFF748FB2A
:1029700032E01D49206888421AD100BF0020009033
:102980001748001F006840F008001549091F08603B
:102990000846006800F00800009000BF00BF012258
:1029A00000213220FFF739FB3220FFF729FB13E02B
:1029B0000E49206888420FD100BF002000900848CF
:1029C000006840F48030064908600846006800F45A
:1029D0008030009000BF00BF06B010BD0000014075
:1029E0004438024000000240000C0040004001401A
:1029F00001460868C06840F001000A68D0600868B5
:102A0000006840F001000A681060002070472DE95E
:102A1000F04104460D46002600BF94F83800012816
:102A200002D10220BDE8F081012084F8380000BF07
:102A3000022084F839002068866826F0770626F49C
:102A40007F4620688660286850283BD00CDC202810
:102A500060D004DC002853D0102865D155E0302820
:102A60005DD0402860D141E0602835D070280DD07D
:102A7000B0F5805F03D0B0F5005F55D115E0206858
:102A8000806820F00700216888604EE0D5E90213D5
:102A90006A68206804F0F4FC2068866826F07706EF
:102AA00046F07706206886603FE0D5E902136A6841
:102AB000206804F0E5FC2068806840F480402168CC
:102AC000886032E0EA686968206804F0CFFD502130
:102AD000206804F0E1FC28E0EA686968206804F0F6
:102AE00027FE6021206804F0D7FC1EE0EA686968D0
:102AF000206804F0BBFD4021206804F0CDFC14E008
:102B00000021206804F0C8FC0FE01021206804F0C8
:102B1000C3FC0AE02021206804F0BEFC05E030215F
:102B2000206804F0B9FC00E000BF00BF012084F879
:102B3000390000BF002084F8380000BF00BF71E7F3
:102B40002DE9F04104460D464FF00008002600270D
:102B500014B90120BDE8F08194F8390028B90020AB
:102B600084F83800204600F045F8022084F8390047
:102B70002068806820F0070021688860211D206897
:102B800004F0FEFB2068D0F8088020688669206881
:102B9000076A286840EA080840F203308643A969BA
:102BA000A86840EA0120064340F60C4086434FF2F5
:102BB000F0008643E969E86840EA01200643286995
:102BC0000001296A40EA0130064327F0220727F076
:102BD00088076969686840EA011007432068C0F8FF
:102BE00008802068866120680762012084F8390027
:102BF0000020AFE710B586B00446142101A8FDF708
:102C000017FB2068B0F1804F2FD100BF002000904B
:102C10003148006840F001002F490860084600680C
:102C200000F00100009000BF00BF00BF0020009036
:102C300029481038006840F0010027491039086021
:102C40000846006800F00100009000BF00BF22208D
:102C50000190022002900020039004900120059032
:102C600001A91E48FFF748F833E01D492068884253
:102C70002FD100BF002000901748006840F00400EA
:102C8000154908600846006800F00400009000BF85
:102C900000BF00BF002000900F481038006840F0CF
:102CA00008000D49103908600846006800F0080067
:102CB000009000BF00BF4FF44050019002200290EE
:102CC0000020039004900220059001A90548FFF719
:102CD00013F806B010BD000040380240000002406A
:102CE00000080040000C024030B504460D4615B106
:102CF000042D0CD105E001220021206804F0B2FB74
:102D000010E001220421206804F0ACFB0AE001225B
:102D10000021206804F0A6FB01220421206804F0B1
:102D2000A1FB00BF00BF2068006840F001002168DF
:102D30000860002030BD000010B504464F492068EF
:102D400088421DD14E480068D8B14E480068006ADC
:102D50004FF6F57108404B49096808624948006818
:102D6000006A40F0020047490968086200204549AE
:102D7000096848624448007840F0100042490870F1
:102D80007BE000213F4800F085FB404908803D483A
:102D90000068006A4FF6F57108403A490968086210
:102DA00038480068006A3749096808623648007880
:102DB00000F01000002860D03348007800F0800058
:102DC000002854D031480088B0F5967F0DDD2F489B
:102DD0000088B0F5487F08DA2D48006840002C498B
:102DE000086008460068086041E028480088B0F59F
:102DF000AF6F0FDD25480088B0F5E16F0ADA24488F
:102E000000684000224908600846006840F0010060
:102E100008602CE01D48008840F69801884211DDCA
:102E20001A48008840F6282188420BDA19480078B1
:102E3000401C184908701448007800F0F00012494E
:102E4000087014E01148008841F2680188420EDDE4
:102E50000E48008841F25C21884208DA0A4800786E
:102E600040F080000849087000200A4908700648B0
:102E7000007820F010000449087010BD00000140E7
:102E8000200240423C0500202C0000202E000020A3
:102E900030000020340000202DE9F04104460D46AA
:102EA000164600BF94F83800012802D10220BDE880
:102EB000F081012084F8380000BF022084F8390036
:102EC00096B9EB68D5E90012206804F0E5FB2068AC
:102ED000806920F00C002168886120688069A968F9
:102EE0000843216888613DE0042E13D1EB68D5E9E1
:102EF0000012206804F032FC2068806920F44060F1
:102F00002168886120688069A96840EA01202168F9
:102F1000886127E0082E12D1EB68D5E900122068FD
:102F200004F03BFC2068C06920F00C002168C861F7
:102F30002068C069A96808432168C86112E0EB688D
:102F4000D5E90012206804F046FC2068C06920F42E
:102F500040602168C8612068C069A96840EA012012
:102F60002168C861012084F8390000BF002084F87E
:102F7000380000BF00BF9AE710B504460CB9012025
:102F800010BD94F8390028B9002084F83800204694
:102F900000F00CF8022084F83900211D206804F0AC
:102FA000EFF9012084F839000020E9E7704730B5D7
:102FB00004460D4635B1042D0BD0082D10D00C2D34
:102FC0001CD114E02068C06840F002002168C8608D
:102FD00015E02068C06840F004002168C8600EE079
:102FE0002068C06840F008002168C86007E02068D9
:102FF000C06840F010002168C86000E000BF00BF5A
:1030000001222946206804F02DFA2068006840F06B
:10301000010021680860002030BD10B5044620681A
:103020000069C0F34000D8B12068C068C0F3400018
:10303000B0B16FF00200216808610120207620689D
:10304000806900F0030018B12046FFF775FE05E027
:10305000204600F0DFF8204600F07CF900202076C2
:1030600020680069C0F38000D8B12068C068C0F350
:103070008000B0B16FF00400216808610220207662
:103080002068806900F4407018B12046FFF754FEB4
:1030900005E0204600F0BEF8204600F05BF9002075
:1030A000207620680069C0F3C000D8B12068C068ED
:1030B000C0F3C000B0B16FF00800216808610420BF
:1030C00020762068C06900F0030018B12046FFF7A1
:1030D00033FE05E0204600F09DF8204600F03AF966
:1030E0000020207620680069C0F30010D8B1206865
:1030F000C068C0F30010B0B16FF010002168086123
:10310000082020762068C06900F4407018B120467D
:10311000FFF712FE05E0204600F07CF8204600F0A4
:1031200019F9002020762068006900F0010058B1EC
:103130002068C06800F0010030B16FF00100216824
:103140000861204600F008F920680069C0F3C0104B
:1031500058B12068C068C0F3C01030B16FF0800073
:10316000216808612046FFF76CFB20680069C0F306
:10317000801058B12068C068C0F3801030B16FF083
:10318000400021680861204600F0AEF9206800691F
:10319000C0F3401058B12068C068C0F3401030B18F
:1031A0006FF02000216808612046FFF74BFB10BD3F
:1031B00010B586B00446142101A8FDF739F812496C
:1031C000206888421DD100BF002000900F48006891
:1031D00040F010000D4908600846006800F010003B
:1031E000009000BF00BF202001900220029001202B
:1031F0000390022004900320059001A90448FEF7E3
:103200007BFD06B010BD0000004001403038024098
:1032100000100240704770B504460D46164600BFC8
:1032200094F83800012801D1022070BD012084F8F3
:10323000380000BF022084F8390036B1042E1BD0BC
:10324000082E31D00C2E5ED145E02946206804F0CE
:103250002DF92068806940F00800216888612068A5
:10326000806920F0040021688861206880692969EC
:1032700008432168886147E02946206804F04EF938
:103280002068806940F40060216888612068806956
:1032900020F480602168886120688069296940EA9B
:1032A0000120216888612FE02946206804F072F926
:1032B0002068C06940F008002168C8612068C069C2
:1032C00020F004002168C8612068C06929690843AA
:1032D0002168C86118E02946206804F097F9206841
:1032E000C06940F400602168C8612068C06920F4AA
:1032F00080602168C8612068C069296940EA0120AE
:103300002168C86100E000BF00BF012084F83900D7
:1033100000BF002084F8380000BF00BF85E710B56B
:1033200004460CB9012010BD94F8390028B90020DA
:1033300084F83800204600F00CF8022084F83900A8
:10334000211D206804F01CF8012084F839000020B9
:10335000E9E770477047000070B5044647492068A8
:1033600088422BD14648007800F0800030B34448B2
:10337000007820F01000424908700846007800F0FC
:103380000F0020B90846007840F0400008703C4823
:10339000007800F00F000E2805DA39480078401C4C
:1033A000374908700AE03648007820F08000344938
:1033B00008700846007800F0F00008703149206875
:1033C000884259D130480088401C2F49088008465F
:1033D0000088052190FBF1F201FB120060B9FDF7B6
:1033E0002DFB2A4DB5F9F831B5F97821B5F9F8106A
:1033F000B5F97800FDF7F6FA234800880A2190FB1A
:10340000F1F201FB120028B9FDF77AFDFDF7F2FD9C
:10341000FDF794FE1C480088322190FBF1F201FB7D
:103420001200022809D102F007F902F061FD02F052
:10343000A5FB02F09FFA02F057FC13480088C82150
:1034400090FBF1F201FB120020B911480088401CEA
:103450000F4908800E4800884EF66021884202DD40
:1034600000200B490880084800884EF660218842F9
:1034700002DD00200449088070BD0000000001400A
:103480002C000020000C004010000020E001002073
:10349000000000200246002300BF92F838000128F7
:1034A00001D102207047012082F8380000BF31B1FD
:1034B000042907D0082908D00C290CD108E010688D
:1034C000436B09E01068836B06E01068C36B03E090
:1034D0001068036C00E000BF00BF00BF002082F84E
:1034E000380000BF1846DDE77047000038B50446D5
:1034F00000250B4800680068C0F3C00078B100BF29
:1035000000200090206800680090206840680090CB
:1035100000BF00BF01220349014800F001FA38BD95
:10352000280A00208809002001460022002391F883
:10353000392091F83A3042EA030070472DE9F0470C
:103540000446206805682068C668206847694FF00F
:103550000008C14605F00F08B8F1000F0AD105F0C8
:10356000200038B106F0200020B1204604F09EF97A
:10357000BDE8F087B8F1000F6DD007F0010018B971
:1035800006F49070002866D005F0010030B106F412
:10359000807018B1E06B40F00100E06305F00400BA
:1035A00030B107F0010018B1E06B40F00200E063B9
:1035B00005F0020030B107F0010018B1E06B40F0F7
:1035C0000400E06305F0080030B107F0010018B115
:1035D000E06B40F00800E063E06B68B305F02000AA
:1035E00028B106F0200010B1204604F05FF92068F1
:1035F0004069C0F38019E06B00F0080010B9B9F120
:10360000000F22D0204604F031F92068406900F014
:103610004000B0B12068406920F040002168486156
:10362000606B50B11748616B0865606BFEF7ECFA90
:1036300010B1606B016D88470CE02046FFF756FF24
:1036400008E02046FFF752FF04E02046FFF74EFF58
:103650000020E0638CE705F0800030B106F08000C8
:1036600018B1204604F024FB82E705F0400030B199
:1036700006F0400018B1204604F008F978E700BFD2
:1036800076E700005978000810B504460CB901200F
:1036900010BDA06900B100E000BF94F8390028B95E
:1036A000002084F83800204600F028F8242084F810
:1036B00039002068C06820F400502168C8602046A6
:1036C00004F042F92068006920F490402168086104
:1036D0002068406920F02A00216848612068C0689D
:1036E00040F400502168C8600020E063202084F886
:1036F000390084F83A000020CAE7000010B586B00F
:103700000446142101A8FCF793FD7D4920688842F6
:1037100039D100BF002000907A48006840F40020B2
:10372000784908600846006800F40020009000BF57
:1037300000BF00BF0020009072481038006840F0C1
:1037400004007049103908600846006800F0040061
:10375000009000BF00BF4FF4406001900220029033
:1037600001200390032004900820059001A96648D9
:10377000FEF7C2FA012211463420FEF74EFC342037
:10378000FEF73EFCB9E06149206888423BD100BFAA
:10379000002000905B48001D006840F0100059496F
:1037A000091D08600846006800F01000009000BF86
:1037B00000BF00BF0020009052481038006840F061
:1037C00001005049103908600846006800F0010007
:1037D000009000BF00BF4FF4C06001900220029033
:1037E00001200390032004900720059001A9484878
:1037F000FEF782FA022200212520FEF70EFC25208A
:10380000FEF7FEFB79E043492068884238D100BFCB
:10381000002000903B48006840F4003039490860BF
:103820000846006800F40030009000BF00BF00BFF1
:103830000020009033481038006840F00100314902
:10384000103908600846006800F00100009000BFD1
:1038500000BF0C2001900220029001200390032061
:1038600004900720059001A92948FEF745FA002297
:1038700011462620FEF7D1FB2620FEF7C1FB3CE0D7
:1038800025492068884238D100BF002000901D489B
:10389000006840F480201B4908600846006800F476
:1038A0008020009000BF00BF00BF0020009015489E
:1038B0001038006840F002001249103908600846CC
:1038C000006800F00200009000BF00BF4FF44060AD
:1038D0000190022002900120039003200490072011
:1038E000059001A90D48FEF707FA012200212720C3
:1038F000FEF793FB2720FEF783FB06B010BD000008
:10390000004C0040403802400008024000100140D6
:103910000000024000440040004800400004024013
:1039200010B5034693F83A00202829D101B10AB90D
:10393000012010BD00BF93F83800012801D10220FA
:10394000F7E7012083F8380000BF99629A85DA858D
:103950000020D863222083F83A0000BF002083F8BB
:10396000380000BF1868406940F001001C686061C1
:103970001868C06840F490701C68E0600020D8E7C8
:103980000220D6E7F0B50146002300240025C74EEB
:103990000A68B2425AD1C64A128802F40042002A8A
:1039A00054D1C44A1678C24A1288C2F30D07C04ADD
:1039B000921C22F81760921E1288C2F30D0222B9DF
:1039C000BB4A5288402A00D0F0BDB94A1288C2F3DF
:1039D0000D02012A07D1B64A92885E2A03D000223E
:1039E000B34E3280F0E7B24A1288C2F30D02022AC7
:1039F00007D1AF4AD288762A03D00022AC4E32805B
:103A0000E2E7AB4A1288521CA94E32803246128835
:103A1000C2F30D020A2A19D1002007E0A44A921C21
:103A200012F810201A44D3B2421CD0B20928F5DB98
:103A30009F4A928A9A4206D19D4A128842F40042D5
:103A40009B4E328002E00022994E32809A4E0A68E4
:103A5000B24244D1994A128802F40042DABB984A31
:103A60001278964E3688C6F30D06964FBA55934A8D
:103A70001288C2F30D0222B93A461278552A00D0B4
:103A8000A2E78E4A1288C2F30D02012A04D18D4AA0
:103A90005278532A00D097E7884A1288521C874EE2
:103AA000328032461288C2F30D020B2A17D1002051
:103AB00005E0844A125C2244D4B2421CD0B20A28E7
:103AC000F7DB804A927AA24206D17C4A128842F4FD
:103AD00000427A4E328002E00022784E32807A4EE6
:103AE0000A68B24258D1794A128802F40042002A88
:103AF00052D1774A1678754A1288C2F30D07734A75
:103B0000921CD655921E1288C2F30D0222B96F4A3A
:103B10009278402A00D057E76C4A1288C2F30D020F
:103B2000012A07D1694AD2785E2A03D00022674E63
:103B3000328049E7654A1288C2F30D02022A07D192
:103B4000624A1279722A03D00022604E32803BE72B
:103B50005E4A1288521C5D4E328032461288C2F391
:103B60000D020A2A18D1002006E0584A921C125C65
:103B70002A44D5B2421CD0B20928F6DB534AD27A85
:103B8000AA4206D1514A128842F400424F4E328076
:103B900002E000224D4E32804E4E0A68B24275D18C
:103BA0004D4A967D127802F07F074B4A521CD6553B
:103BB000521E127802F07F0222B9474A5278242A14
:103BC00000D001E7444A1278521C434E327032460C
:103BD000127802F07F02082A5ED13246527DB67D0D
:103BE000B24254D1002206E03B4E761CD71CF65D53
:103BF0003A4FBE54521C042AF6DB374A9278642AA4
:103C00002BD0692A15D0702A3BD1334A9269334EA2
:103C100036681660304AD2782D2A09D12E4A926928
:103C200092ED000AB1EE400A2B4A926982ED000A39
:103C300027E0294A9269294E36685660264AD2788A
:103C40002D2A09D1244A926992ED010AB1EE400A67
:103C5000214A926982ED010A13E01F4A92691F4EC0
:103C60003668D6601C4AD2782D2A09D11A4A926940
:103C700092ED030AB1EE400A174A926982ED030AF7
:103C800000BF00BF0022144E727532700BE000229C
:103C9000114E7275327006E00F4A527D0E4EB67D9F
:103CA00032440D4E727500BF8EE6000000100140D8
:103CB000A80100205D0000200044004056000020C4
:103CC00088090020F80700200048004084010020F7
:103CD0005E000020004C0040780000201200002010
:103CE0002DE9F84304460D4616461F464FF00009DD
:103CF00094F8390020285CD105B116B90120BDE83F
:103D0000F88300BF94F83800012801D10220F6E7BB
:103D1000012084F8380000BF0020E063212084F8EF
:103D20003900FEF7EFF88146A684E6842BE0E08CAC
:103D3000401EE084A068B0F5805F16D14B4600229B
:103D400080212046009703F0E7FF08B10320D6E763
:103D5000A846B8F80000C0F3080021684860206950
:103D600008B9AD1C0FE06D1C0DE04B460022802110
:103D70002046009703F0D0FF08B10320BFE715F8F5
:103D8000010B21684860E08C0028D0D14B4600220E
:103D900040212046009703F0BFFF08B10320AEE7A3
:103DA000202084F8390000BF002084F8380000BFCC
:103DB000A5E70220A3E7704700BFFEE71CB507A1F7
:103DC00003C9CDE900014FF47A730522694605481D
:103DD000FFF786FF0A2004F05FFF1CBDFFAA7600F4
:103DE00000000000280A002070B50446002609489B
:103DF0000588408845430021084601F065FA02F035
:103E000095F900BF02E004490C80761CAE42FAD35B
:103E100070BD0000800400208000006C10B50446D6
:103E200055488471002C51D1F020534908804FF43B
:103E3000A07048800846808849F24131884205D008
:103E40004D48808845F21031884214D12C204A49CF
:103E500008812A2048812B2088810846808845F2E5
:103E60001031884206D14FF4A070434908804FF4C6
:103E7000F07048807BE04048808845F210518842CD
:103E800010D14FF430503C4908814FF428504881FC
:103E90004FF42C5088814FF4F07008804FF4487034
:103EA000488064E03448808841F6631188425ED1DE
:103EB0002C20314908812B2048812A2088814FF409
:103EC000F07008804FF44870488050E04FF4A070C4
:103ED00029490880F02048800846808849F241310D
:103EE000884205D02448808845F21031884207D1A5
:103EF0002C20214908812A2048812B20888129E013
:103F00001D48808845F21051884210D14FF430503E
:103F1000194908814FF4285048814FF42C5088816A
:103F20004FF4487008804FF4F070488012E0124857
:103F3000808841F6631188420CD12C200E490881FB
:103F40002A2048812B2088814FF4487008804FF444
:103F5000F07048800848808845F21031884206D1C8
:103F60004FF4F070044908804FF4A070488000209E
:103F700001F070F810BD00008004002030B5044648
:103F80000D463F48808849F24131884205D03C487F
:103F9000808845F21031884214D13949488902F0AD
:103FA000B9F8201202F0AAF8E0B202F0A7F83449FA
:103FB000888902F0AFF8281202F0A0F8E8B202F007
:103FC0009DF854E02E48808845F21051884220D157
:103FD0002B49488902F09EF8201202F08FF82849F8
:103FE0004989491C88B202F095F8E0B202F086F8DF
:103FF0002349888902F08EF8281202F07FF82049C0
:104000008989491C88B202F085F8E8B202F076F896
:104010002DE01B48808841F66311884227D118485B
:10402000807920B916480088401E001B84B21449CC
:10403000488902F06FF8201202F060F8E0B202F056
:104040005DF8201202F05AF8E0B202F057F80C497D
:10405000888902F05FF8281202F050F8E8B202F006
:104060004DF8281202F04AF8E8B202F047F8044886
:104070000089044908804FF0D841A1F8802030BD64
:10408000800400207E00006C10B5322004F004FE95
:10409000322004F001FEFE48808845F2103188424B
:1040A0002AD04FF45A4002F035F800F0C7FFF84923
:1040B00088804FF45B4002F02DF800F0BFFFF44918
:1040C0008880084680884FF6FF7101EA0020F04999
:1040D00088804FF45C4002F01DF800F0AFFFEC491F
:1040E00089880843EA49888008468088B0F5004FEF
:1040F00002D145F210508880E548808845F2105181
:1041000088427DD155214FF4704002F019F8AA2160
:104110004FF2010002F014F852214FF2020002F0B7
:104120000FF808214FF2030002F00AF801214FF2C4
:10413000040002F005F80D214FF4304002F000F8C1
:104140000D214BF2010001F0FBFF0D214BF20200AB
:1041500001F0F6FF34214FF4364001F0F1FF342135
:104160004BF2016001F0ECFF34214BF2026001F0F0
:10417000E7FF0D214FF4314001F0E2FF0D214BF23A
:10418000011001F0DDFF0D214BF2021001F0D8FF0C
:1041900034214FF4374001F0D3FF34214BF201704A
:1041A00001F0CEFF34214BF2027001F0C9FF002173
:1041B0004FF4324001F0C4FF00214BF2012001F026
:1041C000BFFF00214BF2022001F0BAFF24214FF47F
:1041D000384001F0B5FF24214BF6010001F0B0FF9B
:1041E00024214BF6020001F0ABFF01214FF43F40C8
:1041F00001F0A6FF0F214FF4334001F0A1FF00E0D2
:10420000FDE30F214BF2013001F09AFF0F214BF239
:10421000023001F095FF34214FF4394001F090FF56
:1042200034214BF6011001F08BFF34214BF60210C4
:1042300001F086FF08214FF4354001F081FF08218D
:104240004BF2015001F07CFF08214BF2025001F0CB
:1042500077FF03214FF4424001F072FF24214FF415
:104260003A4001F06DFF24214BF6012001F068FF78
:1042700024214BF6022001F063FF00214FF43C4063
:1042800001F05EFF78214BF6014001F059FF00215B
:104290004BF6024001F054FF00214FF43D4001F085
:1042A0004FFF78214BF6015001F04AFF00214BF6F9
:1042B000025001F045FF00214FF43E4001F040FF65
:1042C00064214BF6016001F03BFF00214FF45140A7
:1042D00001F036FF33214DF2011001F031FF0021D2
:1042E0004DF2021001F02CFF34214DF2031001F0C9
:1042F00027FF00214DF2041001F022FF3A214DF278
:10430000051001F01DFF00214DF2061001F018FF0D
:104310004A214DF2071001F013FF00214DF2081061
:1043200001F00EFF5C214DF2091001F009FF0021A0
:104330004DF20A1001F004FF81214DF20B1001F043
:10434000FFFE00214DF20C1001F0FAFEA6214DF205
:104350000D1001F0F5FE00214DF20E1001F0F0FEFF
:10436000E5214DF20F1001F0EBFE01214DF210108E
:1043700001F0E6FE13214DF2111001F0E1FE0121E2
:104380004DF2121001F0DCFE54214DF2131001F039
:10439000D7FE01214DF2141001F0D2FE82214DF220
:1043A000151001F0CDFE01214DF2161001F0C8FEEE
:1043B000CA214DF2171001F0C3FE02214DF2181070
:1043C00001F0BEFE00214DF2191001F0B9FE0221EC
:1043D0004DF21A1001F0B4FE01214DF21B1001F054
:1043E000AFFE02214DF21C1001F0AAFE34214DF265
:1043F0001D1001F0A5FE02214DF21E1001F0A0FEDD
:1044000067214DF21F1001F09BFE02214DF220109A
:1044100001F096FE84214DF2211001F091FE02215F
:104420004DF2221001F08CFEA4214DF2231001F078
:1044300087FE02214DF2241001F082FEB7214DF2D9
:10444000251001F07DFE02214DF2261001F078FECC
:10445000CF214DF2271001F073FE02214DF22810FA
:1044600001F06EFEDE214DF2291001F069FE0221FD
:104470004DF22A1001F064FEF2214DF22B1001F0F2
:104480005FFE02214DF22C1001F05AFEFE2101E0E8
:10449000800400204DF22D1001F052FE03214DF258
:1044A0002E1001F04DFE10214DF22F1001F048FEAC
:1044B00003214DF2301001F043FE33214DF2311053
:1044C00001F03EFE03214DF2321001F039FE6D2164
:1044D0004DF2331001F034FE00214FF4524001F050
:1044E0002FFE33214DF2012001F02AFE00214DF272
:1044F000022001F025FE34214DF2032001F020FEC0
:1045000000214DF2042001F01BFE3A214DF205205E
:1045100001F016FE00214DF2062001F011FE4A21A5
:104520004DF2072001F00CFE00214DF2082001F0B1
:1045300007FE5C214DF2092001F002FE00214DF240
:104540000A2001F0FDFD81214DF20B2001F0F8FD64
:1045500000214DF20C2001F0F3FDA6214DF20D20BB
:1045600001F0EEFD00214DF20E2001F0E9FDE52104
:104570004DF20F2001F0E4FD01214DF2102001F079
:10458000DFFD13214DF2112001F0DAFD01214DF282
:10459000122001F0D5FD54214DF2132001F0D0FD81
:1045A00001214DF2142001F0CBFD82214DF21520A6
:1045B00001F0C6FD01214DF2162001F0C1FDCA2116
:1045C0004DF2172001F0BCFD02214DF2182001F040
:1045D000B7FD00214DF2192001F0B2FD02214DF28C
:1045E0001A2001F0ADFD01214DF21B2001F0A8FDC4
:1045F00002214DF21C2001F0A3FD34214DF21D20BB
:1046000001F09EFD02214DF21E2001F099FD67216F
:104610004DF21F2001F094FD02214DF2202001F007
:104620008FFD84214DF2212001F08AFD02214DF2FF
:10463000222001F085FDA4214DF2232001F080FD10
:1046400002214DF2242001F07BFDB7214DF22520FF
:1046500001F076FD02214DF2262001F071FDCF21FF
:104660004DF2272001F06CFD02214DF2282001F0CF
:1046700067FDDE214DF2292001F062FD02214DF29D
:104680002A2001F05DFDF2214DF22B2001F058FDB2
:1046900002214DF22C2001F053FDFE214DF22D2080
:1046A00001F04EFD03214DF22E2001F049FD1021B5
:1046B0004DF22F2001F044FD03214DF2302001F096
:1046C0003FFD33214DF2312001F03AFD03214DF23F
:1046D000322001F035FD6D214DF2332001F030FD27
:1046E00000214FF4534001F02BFD33214DF20130F6
:1046F00001F026FD00214DF2023001F021FD3421B0
:104700004DF2033001F01CFD00214DF2043001F0A8
:1047100017FD3A214DF2053001F012FD00214DF256
:10472000063001F00DFD4A214DF2073001F008FD81
:1047300000214DF2083001F003FD5C214DF20930FB
:1047400001F0FEFC00214DF20A3001F0F9FC81215C
:104750004DF20B3001F0F4FC00214DF20C3001F071
:10476000EFFCA6214DF20D3001F0EAFC00214DF2E4
:104770000E3001F0E5FCE5214DF20F3001F0E0FCD8
:1047800001214DF2103001F0DBFC13214DF211300C
:1047900001F0D6FC01214DF2123001F0D1FC542180
:1047A0004DF2133001F0CCFC01214DF2143001F038
:1047B000C7FC82214DF2153001F0C2FC01214DF2FF
:1047C000163001F0BDFCCA214DF2173001F0B8FCE3
:1047D00002214DF2183001F0B3FC00214DF21930E6
:1047E00001F0AEFC02214DF21A3001F0A9FC0121CA
:1047F0004DF21B3001F0A4FC02214DF21C3001F0FF
:104800009FFC34214DF21D3001F09AFC02214DF243
:104810001E3001F095FC67214DF21F3001F090FC35
:1048200002214DF2203001F08BFC84214DF2213029
:1048300001F086FC02214DF2223001F081FCA4211E
:104840004DF2233001F07CFC02214DF2243001F0C6
:1048500077FCB7214DF2253001F072FC02214DF2B8
:10486000263001F06DFCCF214DF2273001F068FCBD
:1048700002214DF2283001F063FCDE214DF2293097
:1048800001F05EFC02214DF22A3001F059FCF221C8
:104890004DF22B3001F054FC02214DF22C3001F08E
:1048A0004FFCFE214DF22D3001F04AFC03214DF268
:1048B0002E3001F045FC10214DF22F3001F040FC6C
:1048C00003214DF2303001F03BFC33214DF2313009
:1048D00001F036FC03214DF2323001F031FC6D2144
:1048E0004DF2333001F02CFC00214FF4544001F024
:1048F00027FC33214DF2014001F022FC00214DF252
:10490000024001F01DFC34214DF2034001F018FC7F
:1049100000214DF2044001F013FC3A214DF2054014
:1049200001F00EFC00214DF2064001F009FC4A2185
:104930004DF2074001F004FC00214DF2084001F067
:10494000FFFB5C214DF2094001F0FAFB00214DF222
:104950000A4001F0F5FB81214DF20B4001F0F0FB24
:1049600000214DF20C4001F0EBFBA6214DF20D4071
:1049700001F0E6FB00214DF20E4001F0E1FBE521E4
:104980004DF20F4001F0DCFB01214DF2104001F02F
:10499000D7FB13214DF2114001F0D2FB01214DF262
:1049A000124001F0CDFB54214DF2134001F0C8FB41
:1049B00001214DF2144001F0C3FB82214DF215405C
:1049C00001F0BEFB01214DF2164001F0B9FBCA21F6
:1049D0004DF2174001F0B4FB02214DF2184001F0F6
:1049E000AFFB00214DF2194001F0AAFB02214DF26C
:1049F0001A4001F0A5FB01214DF21B4000E004E349
:104A000001F09EFB02214DF21C4001F099FB342184
:104A10004DF21D4001F094FB02214DF21E4001F0C9
:104A20008FFB67214DF21F4001F08AFB02214DF2FE
:104A3000204001F085FB84214DF2214001F080FBF4
:104A400002214DF2224001F07BFBA4214DF22340D4
:104A500001F076FB02214DF2244001F071FBB721F9
:104A60004DF2254001F06CFB02214DF2264001F091
:104A700067FBCF214DF2274001F062FB02214DF28E
:104A8000284001F05DFBDE214DF2294001F058FB8A
:104A900002214DF22A4001F053FBF2214DF22B404E
:104AA00001F04EFB02214DF22C4001F049FBFE21AA
:104AB0004DF22D4001F044FB03214DF22E4001F058
:104AC0003FFB10214DF22F4001F03AFB03214DF244
:104AD000304001F035FB33214DF2314001F030FB25
:104AE00003214DF2324001F02BFB6D214DF233409A
:104AF00001F026FB00214FF4554001F021FB33214A
:104B00004DF2015001F01CFB00214DF2025001F06A
:104B100017FB34214DF2035001F012FB00214DF23E
:104B2000045001F00DFB3A214DF2055001F008FB55
:104B300000214DF2065001F003FB4A214DF20750CF
:104B400001F0FEFA00214DF2085001F0F9FA5C2163
:104B50004DF2095001F0F4FA00214DF20A5001F033
:104B6000EFFA81214DF20B5001F0EAFA00214DF2EB
:104B70000C5001F0E5FAA6214DF20D5001F0E0FADB
:104B800000214DF20E5001F0DBFAE5214DF20F50FD
:104B900001F0D6FA01214DF2105001F0D1FA1321A3
:104BA0004DF2115001F0CCFA01214DF2125001F0FA
:104BB000C7FA54214DF2135001F0C2FA01214DF20F
:104BC000145001F0BDFA82214DF2155001F0B8FAEF
:104BD00001214DF2165001F0B3FACA214DF21750DF
:104BE00001F0AEFA02214DF2185001F0A9FA0021AD
:104BF0004DF2195001F0A4FA02214DF21A5001F0C1
:104C00009FFA01214DF21B5001F09AFA02214DF258
:104C10001C5001F095FA34214DF21D5001F090FA2C
:104C200002214DF21E5001F08BFA67214DF21F5008
:104C300001F086FA02214DF2205001F081FA842120
:104C40004DF2215001F07CFA02214DF2225001F088
:104C500077FAA4214DF2235001F072FA02214DF2AD
:104C6000245001F06DFAB7214DF2255001F068FA99
:104C700002214DF2265001F063FACF214DF2275068
:104C800001F05EFA02214DF2285001F059FADE21BE
:104C90004DF2295001F054FA02214DF22A5001F050
:104CA0004FFAF2214DF22B5001F04AFA02214DF257
:104CB0002C5001F045FAFE214DF22D5001F040FA42
:104CC00003214DF22E5001F03BFA10214DF22F50EE
:104CD00001F036FA03214DF2305001F031FA332160
:104CE0004DF2315001F02CFA03214DF2325001F017
:104CF00027FA6D214DF2335001F022FA00214FF4D2
:104D0000564001F01DFA33214DF2016001F018FA0E
:104D100000214DF2026001F013FA34214DF20360DC
:104D200001F00EFA00214DF2046001F009FA3A2177
:104D30004DF2056001F004FA00214DF2066001F029
:104D4000FFF94A214DF2076001F0FAF900214DF216
:104D5000086001F0F5F95C214DF2096001F0F0F90D
:104D600000214DF20A6001F0EBF981214DF20B6058
:104D700001F0E6F900214DF20C6001F0E1F9A62105
:104D80004DF20D6001F0DCF900214DF20E6001F0F2
:104D9000D7F9E5214DF20F6001F0D2F901214DF272
:104DA000106001F0CDF913214DF2116001F0C8F946
:104DB00001214DF2126001F0C3F954214DF213604C
:104DC00001F0BEF901214DF2146001F0B9F9822120
:104DD0004DF2156001F0B4F901214DF2166001F0B9
:104DE000AFF9CA214DF2176001F0AAF902214DF284
:104DF000186001F0A5F900214DF2196001F0A0F949
:104E000002214DF21A6001F09BF901214DF21B6065
:104E100001F096F902214DF21C6001F091F9342164
:104E20004DF21D6001F08CF902214DF21E6001F07F
:104E300087F967214DF21F6001F082F902214DF2DE
:104E4000206001F07DF984214DF2216001F078F9B4
:104E500002214DF2226001F073F9A4214DF223608A
:104E600001F06EF902214DF2246001F069F9B721D9
:104E70004DF2256001F064F902214DF2266001F047
:104E80005FF9CF214DF2276001F05AF902214DF26E
:104E9000286001F055F9DE214DF2296001F050F94A
:104EA00002214DF22A6001F04BF9F2214DF22B6004
:104EB00001F046F902214DF22C6001F041F9FE218A
:104EC0004DF22D6001F03CF903214DF22E6001F00E
:104ED00037F910214DF22F6001F032F903214DF224
:104EE000306001F02DF933214DF2316001F028F9E5
:104EF00003214DF2326001F023F96D214DF2336050
:104F000001F01EF955214FF4704001F019F9AA2162
:104F10004FF2010001F014F952214FF2020001F0AA
:104F20000FF908214FF2030001F00AF900214FF2B6
:104F3000040001F005F9CC214FF4314001F000F9F3
:104F400000214BF2011001F0FBF805214FF436402F
:104F500001F0F6F870214FF4374001F0F1F87021BC
:104F60004BF2017001F0ECF801214FF4384001F0F0
:104F7000E7F803214BF6010001F0E2F803214BF6BC
:104F8000020001F0DDF803214BF6030001F0D8F830
:104F900002214FF43C4001F0D3F800214BF60140D0
:104FA00001F0CEF800214BF6024001F0C9F8D02103
:104FB0004FF4494001F0C4F802214CF6011001F011
:104FC000BFF850214CF6021001F0BAF850214CF60F
:104FD000031001F0B5F850214CF6041001F0B0F8C0
:104FE00000214FF4545001F0ABF855214FF46850B4
:104FF00001F0A6F84FF4885001F08CF8782003F007
:1050000067FE4FF4245001F085F80020FEF706FFFC
:105010000120034908604FF6FF70FEF7E5FE10BD62
:10502000BC82404210B50246012000E050430B0014
:10503000A1F10104E1B2F9D110BD000008B50220D0
:1050400003F046FE024800880090BDF8000008BD4D
:105050008000006CF0B5054600240027994880794F
:10506000012805D19748808841F66311884208D10C
:1050700094488079F0B99348808841F6631188425A
:1050800018D1082D15D2DFE805F00406080A0C0E29
:10509000101206250DE007250BE0042509E0052583
:1050A00007E0012505E0002503E0032501E00225D6
:1050B00000BF00BF8348808849F24131884211D047
:1050C0008048808845F2103188420BD07D48808826
:1050D00045F21051884205D07A48808841F6631124
:1050E00088427DD1082D1CD2DFE805F00406090CAA
:1050F0000F12151800BF14E044F0800411E044F0D2
:1051000040040EE044F0C0040BE044F0200408E04A
:1051100044F0600405E044F0A00402E044F0E00440
:1051200000BF00BF6748808845F21051884202D115
:105130004FF4585700E036276248808845F2103116
:1051400088420DD05F48808845F21051884207D0D0
:105150005C48808841F66311884201D044F008041D
:105160002146384600F0ECFF5648808841F663112E
:1051700088421DD004F0200068B15248008851498F
:105180004988884214DA4F48068840884D4908808B
:10519000084646800CE04B4800884A4949888842C6
:1051A00006DD48480688408846490880084646800B
:1051B0004448808845F21051884254D14149488979
:1051C00000F0A8FF002000F099FF3E494989491CE2
:1051D00088B200F09FFF002000F090FF394900E006
:1051E0006FE04989891C88B200F094FF354909882D
:1051F000491EC1F30F2000F081FF32494989C91CC3
:1052000088B200F087FF2F490978491EC8B200F024
:1052100075FF2C49888900F07DFF002000F06EFFAB
:1052200028498989491C88B200F074FF002000F0E9
:1052300065FF24498989891C88B200F06BFF2149E8
:105240004988491EC1F30F2000F058FF1D49898984
:10525000C91C88B200F05EFF1A498978491EC8B29D
:1052600000F04CFF2DE01749488900F053FF002063
:1052700000F044FF002000F041FF12490988491E58
:10528000C1F30F2000F03AFF0E490978491EC8B259
:1052900000F034FF0B49888900F03CFF002000F04B
:1052A0002DFF002000F02AFF06494988491EC1F35E
:1052B0000F2000F023FF03498978491EC8B200F08F
:1052C0001DFFF0BD8004002010B502460C464B487F
:1052D000808849F24131884205D04848808845F2AB
:1052E0001031884214D14549488900F013FF10124B
:1052F00000F004FFD0B200F001FF4049888900F0BF
:1053000009FF201200F0FAFEE0B200F0F7FE73E0B1
:105310003A48808841F66311884247D137488079FE
:10532000A8B936480088401E801A82B2334948899D
:1053300000F0F0FE002000F0E1FE002000F0DEFEB4
:10534000101200F0DBFED0B200F0D8FE16E02B49C0
:10535000488900F0DFFE101200F0D0FED0B200F05D
:10536000CDFE26490988491EC1F30F2000F0C6FE74
:1053700022490978491EC8B200F0C0FE1F49888939
:1053800000F0C8FE201200F0B9FEE0B200F0B6FE58
:105390001A494988491EC1F30F2000F0AFFE174992
:1053A0008978491EC8B200F0A9FE25E0134880881C
:1053B00045F2105188421FD11049488900F0AAFED9
:1053C000101200F09BFE0D494989491C88B200F07B
:1053D000A1FED0B200F092FE0849888900F09AFE42
:1053E000201200F08BFE05498989491C88B200F023
:1053F00091FEE0B200F082FE10BD000080040020AB
:105400002DE9F84F80460F4616461C46BB462046FF
:10541000E31704EB5373DB1021464FEAE47C04EB03
:105420005C7C4FEAEC0CA4EBCC0CBCF1000F02D07E
:105430004FF0010C01E04FF0000C6344224604EBF6
:10544000D27C4FEA6C0C03FB0CF3DBB20093A6F1A9
:105450002000C6B200255EE00C2C07D106EB46000A
:105460002F4901EB800010F805901BE0102C05D1AE
:105470002C4800EB061010F8059013E0182C07D10B
:1054800006EBC600284901EB800010F8059009E002
:10549000202C05D1254800EBC61010F8059001E03E
:1054A000BDE8F88F4FF0000A2FE009F0800030B11E
:1054B0001F48394602684046FEF760FD07E00A983B
:1054C00028B91C48394602684046FEF757FD4FEAA6
:1054D00049604FEA1069781C87B217484088B84283
:1054E00000DCDDE7A7EB0B00A0420AD15F4608F124
:1054F00001001FFA80F810480088404500DCCFE723
:1055000006E00AF1010000F0FF0ABAF1080FCCDB57
:1055100000BF681CC5B2009885429DDB00BFBFE795
:10552000108E00088492000874980008D0A5000826
:105530002400002028000020800400202DE9FF4FD7
:1055400081B0074691461E460E9D4FF0000A00248A
:1055500039E0301B401EC1B20A20FFF763FDB9FBE2
:10556000F0F00A21B0FBF1F201FB1208BAF1000FD2
:1055700016D1701EA04213DDB8F1000F0ED100202D
:10558000AB4605EBDB71491001FB0471009088B25A
:105590002B4620220299FFF733FF12E04FF0010A59
:1055A0000020AB4605EBDB71491001FB0471009054
:1055B00088B208F13001CAB22B460299FFF720FFEA
:1055C00000BF601CC4B2B442C3DB05B0BDE8F08FBD
:1055D0002DE9F84704460D4690469946DDE90967EE
:1055E00004F0FF0A08EB04001FFA80F809EB05003D
:1055F0001FFA80F916E0444502DB5446A81985B22B
:105600004D4500DB14E0002000903A7833462946EF
:105610002046FFF7F5FE304606EBD07104EB610142
:105620008CB27F1C38787E2802DC38782028E2DAB9
:1056300000BFBDE8F88700007CB5002600245DE0CF
:10564000304830F91450002D1CDA684205B214B10C
:10565000012C16D10AE0002018232D224FF482716C
:1056600000904FF49170FFF7CBFE0AE00020182362
:105670002D224FF4967100904FF49170FFF7C0FE09
:1056800000BF1AE014B1012C16D10AE00020182343
:1056900020224FF4827100904FF49170FFF7B0FE1A
:1056A0000AE00020182320224FF4967100904FF456
:1056B0009170FFF7A5FE00BF00BFAEB214B1012C80
:1056C00019D10CE00020182105233246CDE9001045
:1056D0004FF4827140F2311000F0B0FC0BE000207A
:1056E000182105233246CDE900104FF49671481D6C
:1056F00000F0A4FC00BF00BF601CC4B2022C9FDB02
:105700007CBD0000040400200CB51F207049086017
:1057100070A018210B46C822CDE900101E21A02040
:10572000FFF756FF6FA018210B46C822CDE90010E5
:1057300064211E20FFF74CFF6CA018210B46C822E5
:10574000CDE900108C211E20FFF742FF69A018212F
:105750000B46C822CDE90010B4211E20FFF738FF08
:1057600066A018210B46C822CDE90010DC211E20BE
:10577000FFF72EFF63A018210B46C822CDE90010C9
:105780006421E620FFF724FF60A018210B46C82201
:10579000CDE900108C21E620FFF71AFF5DA018214B
:1057A0000B46C822CDE90010B421E620FFF710FF18
:1057B0005AA018210B46C822CDE90010DC21E620B2
:1057C000FFF706FF57A018210B46C822CDE90010AD
:1057D0004FF48271E620FFF7FBFE54A018210B4620
:1057E000C822CDE900104FF49671E620FFF7F0FED5
:1057F00050A018210B46C822CDE900104FF4967135
:105800001E20FFF7E5FE4CA018210B46C822CDE96B
:1058100000104FF4AA711E20FFF7DAFE47A01821EE
:105820000B46C822CDE900104FF4BE711E20FFF7D1
:10583000CFFE43A018210B46C822CDE900104FF43B
:10584000D2711E20FFF7C4FE3EA018210B46C822CD
:10585000CDE900104FF4E6711E20FFF7B9FE3AA023
:1058600018210B46C822CDE900104FF4FA711E2012
:10587000FFF7AEFE36A018210B46C822CDE9001076
:105880004FF4BE71E620FFF7A3FE33A018210B46AC
:10589000C822CDE900104FF4D271E620FFF798FE40
:1058A0002FA018210B46C822CDE900104FF4E67155
:1058B000E620FFF78DFE2CA018210B46C822CDE96B
:1058C00000104FF4FA71E620FFF782FE0CBD0000D5
:1058D000240000204441544120444953504C415934
:1058E000000000005356313A000000005356323A8F
:1058F000000000005356333A000000005356343A7B
:10590000000000004756313A000000004756323A86
:10591000000000004756333A000000004756343A72
:10592000000000004F646F313A0000004F646F3296
:105930003A00000056783A0056793A0020773A004B
:1059400020583A0020593A0054686574613A0000C2
:1059500070726F6772616D0062616C6C00000000B4
:10596000636F75727400000020202020202020200A
:10597000000000003CB5002400257E48D0ED060A5A
:10598000B0EE600AB5EEC00AF1EE10FA0DD2F1EEFB
:10599000400AB0EE600A002018232D224FF49671C1
:1059A00000905020FFF72CFD08E000201823202253
:1059B0004FF4967100905020FFF722FDFCEEC00AD4
:1059C00010EE900A84B200EE904AF8EE600A70EE93
:1059D000600A9FED691A60EE810AFCEEE00A10EEA3
:1059E000900A85B20020182102232246CDE900103A
:1059F0004FF496715F2000F021FB002018232E2227
:105A00004FF4967100907D20FFF7FAFC00201821DA
:105A100003232A46CDE900104FF49671872000F049
:105A20000DFB5448D0ED070AB0EE600AB5EEC00A8F
:105A3000F1EE10FA0DD2F1EE400AB0EE600A00204D
:105A400018232D224FF4AA7100905020FFF7D8FCA4
:105A500008E00020182320224FF4AA710090502063
:105A6000FFF7CEFCFCEEC00A10EE900A84B200EE06
:105A7000904AF8EE600A70EE600A9FED3F1A60EE01
:105A8000810AFCEEE00A10EE900A85B2002018218F
:105A900002232246CDE900104FF4AA715F2000F0E6
:105AA000CDFA002018232E224FF4AA7100907D20F9
:105AB000FFF7A6FC0020182103232A46CDE9001099
:105AC0004FF4AA71872000F0B9FA2A48D0ED080AED
:105AD000B0EE600AB5EEC00AF1EE10FA0DD2F1EEAA
